:020000040000fa
:080000000002040000000000f2
:020000040000fa
:04000800c003000031
:020000040000fa
:04000c00c00300002d
:020000040000fa
:04001000c003000029
:020000040000fa
:04001400c003000025
:020000040000fa
:04001800c003000021
:020000040000fa
:04001c00c00300001d
:020000040000fa
:04002000c003000019
:020000040000fa
:04002400c003000015
:020000040000fa
:04002800fc020000d6
:020000040000fa
:04002c00c00300000d
:020000040000fa
:04003000c003000009
:020000040000fa
:040034003e03000087
:020000040000fa
:04003800c003000001
:020000040000fa
:04003c00c0030000fd
:020000040000fa
:04004000c0030000f9
:020000040000fa
:04004400c0030000f5
:020000040000fa
:04004800c0030000f1
:020000040000fa
:04004c00c0030000ed
:020000040000fa
:04005000c0030000e9
:020000040000fa
:04005400c0030000e5
:020000040000fa
:04005800c0030000e1
:020000040000fa
:04005c00c8020000d6
:020000040000fa
:04006000c0030000d9
:020000040000fa
:04006400c0030000d5
:020000040000fa
:04006800c0030000d1
:020000040000fa
:04006c00c0030000cd
:020000040000fa
:04007000c0030000c9
:020000040000fa
:04007400c0030000c5
:020000040000fa
:04007800c0030000c1
:020000040000fa
:04007c00c0030000bd
:020000040000fa
:04008000c0030000b9
:020000040000fa
:04008400c0030000b5
:020000040000fa
:04008800c0030000b1
:020000040000fa
:04008c00c0030000ad
:020000040000fa
:04009000c0030000a9
:020000040000fa
:040094006203000003
:020000040000fa
:04009800c0030000a1
:020000040000fa
:04009c00c00300009d
:020000040000fa
:0400a000c003000099
:020000040000fa
:0400a400c003000095
:020000040000fa
:0400a800c003000091
:020000040000fa
:0400ac00c00300008d
:020000040000fa
:0400b000c003000089
:020000040000fa
:0400b400c003000085
:020000040000fa
:0400b800c003000081
:020000040000fa
:0400bc00c00300007d
:020000040000fa
:0400c000c003000079
:020000040000fa
:0400c400c003000075
:020000040000fa
:0400c800c003000071
:020000040000fa
:0400cc00c00300006d
:020000040000fa
:0400d000c003000069
:020000040000fa
:0400d400c003000065
:020000040000fa
:0400d800c003000061
:020000040000fa
:0400dc00c00300005d
:020000040000fa
:0400e000c003000059
:020000040000fa
:0400e400c003000055
:020000040000fa
:0400e800c003000051
:020000040000fa
:0400ec00c00300004d
:020000040000fa
:0400f000c003000049
:020000040000fa
:0400f400c003000045
:020000040000fa
:0400f800c003000041
:020000040000fa
:0400fc00c00300003d
:020000040000fa
:04010000c003000038
:020000040000fa
:04010400c003000034
:020000040000fa
:04010800c003000030
:020000040000fa
:04010c00c00300002c
:020000040000fa
:04011000c003000028
:020000040000fa
:04011400c003000024
:020000040000fa
:04011800c003000020
:020000040000fa
:04011c00c00300001c
:020000040000fa
:04012000c003000018
:020000040000fa
:04012400c003000014
:020000040000fa
:04012800c003000010
:020000040000fa
:04012c00c00300000c
:020000040000fa
:04013000c003000008
:020000040000fa
:04013400c003000004
:020000040000fa
:04013800c003000000
:020000040000fa
:04013c00c0030000fc
:020000040000fa
:04014000c0030000f8
:020000040000fa
:04014400c0030000f4
:020000040000fa
:04014800c0030000f0
:020000040000fa
:04014c00c0030000ec
:020000040000fa
:04015000c0030000e8
:020000040000fa
:04015400c0030000e4
:020000040000fa
:04015800c0030000e0
:020000040000fa
:04015c00c0030000dc
:020000040000fa
:04016000c0030000d8
:020000040000fa
:04016400c0030000d4
:020000040000fa
:04020800c00300002f
:020000040000fa
:04020c00c00300002b
:020000040000fa
:04021000c003000027
:020000040000fa
:04021400c003000023
:020000040000fa
:04021800c00300001f
:020000040000fa
:04021c00c00300001b
:020000040000fa
:04022000c003000017
:020000040000fa
:04022400c003000013
:020000040000fa
:04022800fc020000d4
:020000040000fa
:04022c00c00300000b
:020000040000fa
:04023000c003000007
:020000040000fa
:040234003e03000085
:020000040000fa
:04023800c0030000ff
:020000040000fa
:04023c00c0030000fb
:020000040000fa
:04024000c0030000f7
:020000040000fa
:04024400c0030000f3
:020000040000fa
:04024800c0030000ef
:020000040000fa
:04024c00c0030000eb
:020000040000fa
:04025000c0030000e7
:020000040000fa
:04025400c0030000e3
:020000040000fa
:04025800c0030000df
:020000040000fa
:04025c00c8020000d4
:020000040000fa
:04026000c0030000d7
:020000040000fa
:04026400c0030000d3
:020000040000fa
:04026800c0030000cf
:020000040000fa
:04026c00c0030000cb
:020000040000fa
:04027000c0030000c7
:020000040000fa
:04027400c0030000c3
:020000040000fa
:04027800c0030000bf
:020000040000fa
:04027c00c0030000bb
:020000040000fa
:04028000c0030000b7
:020000040000fa
:04028400c0030000b3
:020000040000fa
:04028800c0030000af
:020000040000fa
:04028c00c0030000ab
:020000040000fa
:04029000c0030000a7
:020000040000fa
:040294006203000001
:020000040000fa
:04029800c00300009f
:020000040000fa
:04029c00c00300009b
:020000040000fa
:0402a000c003000097
:020000040000fa
:0402a400c003000093
:020000040000fa
:0402a800c00300008f
:020000040000fa
:0402ac00c00300008b
:020000040000fa
:0402b000c003000087
:020000040000fa
:0402b400c003000083
:020000040000fa
:0402b800c00300007f
:020000040000fa
:0402bc00c00300007b
:020000040000fa
:0402c000c003000077
:020000040000fa
:0402c400c003000073
:020000040000fa
:0402c800c00300006f
:020000040000fa
:0402cc00c00300006b
:020000040000fa
:0402d000c003000067
:020000040000fa
:0402d400c003000063
:020000040000fa
:0402d800c00300005f
:020000040000fa
:0402dc00c00300005b
:020000040000fa
:0402e000c003000057
:020000040000fa
:0402e400c003000053
:020000040000fa
:0402e800c00300004f
:020000040000fa
:0402ec00c00300004b
:020000040000fa
:0402f000c003000047
:020000040000fa
:0402f400c003000043
:020000040000fa
:0402f800c00300003f
:020000040000fa
:0402fc00c00300003b
:020000040000fa
:04030000c003000036
:020000040000fa
:04030400c003000032
:020000040000fa
:04030800c00300002e
:020000040000fa
:04030c00c00300002a
:020000040000fa
:04031000c003000026
:020000040000fa
:04031400c003000022
:020000040000fa
:04031800c00300001e
:020000040000fa
:04031c00c00300001a
:020000040000fa
:04032000c003000016
:020000040000fa
:04032400c003000012
:020000040000fa
:04032800c00300000e
:020000040000fa
:04032c00c00300000a
:020000040000fa
:04033000c003000006
:020000040000fa
:04033400c003000002
:020000040000fa
:04033800c0030000fe
:020000040000fa
:04033c00c0030000fa
:020000040000fa
:04034000c0030000f6
:020000040000fa
:04034400c0030000f2
:020000040000fa
:04034800c0030000ee
:020000040000fa
:04034c00c0030000ea
:020000040000fa
:04035000c0030000e6
:020000040000fa
:04035400c0030000e2
:020000040000fa
:04035800c0030000de
:020000040000fa
:04035c00c0030000da
:020000040000fa
:04036000c0030000d6
:020000040000fa
:04036400c0030000d2
:020000040000fa
:100400006f8020000e7f24000e0188000000000095
:10041000000020000000e000020032000001200087
:100420002002880014000700d70007000000e00049
:1004300003003a00407b200001002000020037004a
:100440000000200001002000810f70000100320038
:1004500014000700000020000000e000020032004d
:1004600000000200000000009807020000000000e9
:100470000040da000000fe004440a9000000200017
:100480000000e0000300320000002000a00188000e
:100490004440a800000006008a1f78008b1f7800e7
:1004a0000000060091018800800478000000eb0045
:1004b0001a003700e284440032a0b4009905ba0063
:1004c000e284440032a0b4009906ba00e2844400f9
:1004d00032a0b4000006eb00476fde00fd07b2005b
:1004e000636ce10003003a00ebff07000000eb0043
:1004f0000a003700606ce10004003a00005deb0088
:100500008b05e900fdff3e00040037006168e10053
:10051000010032000086eb000b00070019c7ba008b
:100520001905ba000e04e00003003a000a00e000da
:10053000e0ff3a0000000600fe07b2009e018800be
:100540008a047800f5ff3700395dba008b05e900b1
:100550000c003200295dba008b05e900080032006a
:100560000c00e00003003a00e284440032a0b40032
:10057000f5ff370019ddba008b05e900faff3a00f4
:100580008904e800e184440032a0b40000000600c1
:100590003600f800809fbe00829fbe00849fbe0090
:1005a000869fbe000000fa00001880008000eb006b
:1005b000dc00070032332300330524002e0107003e
:1005c00002002f00f357240070000700b10007005d
:1005d000000078000040880085a0a9000080fa0093
:1005e0004f03be004f02be004f01be004f00be00d1
:1005f0003600f900004006003600f800809fbe007b
:10060000829fbe00849fbe00869fbe000000fa004d
:10061000104080000000e00003003a00a00020002d
:10062000104088000900370010408000cf80de00b5
:10063000b90007000200200003fc23000e010700a0
:10064000940007000000780010408800d108800066
:100650001040800000805000d00888008400a9006d
:100660000080fa004f03be004f02be004f01be00e3
:100670004f00be003600f90000400600809fbe001b
:100680000000fa00501680004200de006140600069
:1006900000c0ea00614060000080fb006100600073
:1006a0004200dd00511680000120a1000100700011
:1006b000501688008460a9000080fa004f00be0038
:1006c000004006003600f800809fbe00829fbe00fa
:1006d000849fbe00869fbe000000fa00204080007c
:1006e0000000e00006003a00f0010700cb62a8001d
:1006f000204080000000e8002040880018003700fb
:1007000020408000e10f500006003a00e70107009a
:10071000cb42a800204080000000e8002040880074
:100720000f00370020408000e20f500006003a0022
:10073000de010700cb22a800204080000000e80076
:10074000204088000600370020408000e30f500062
:1007500003003a00d5010700cb02a8000428ef00ef
:100760008460a9000080fa004f03be004f02be0063
:100770004f01be004f00be003600f90000400600e9
:100780000040da000000fe0000000500889fbe0067
:100790008a9fbe008c1f78009f000700a6003300d0
:1007a00003866c006450e1002e0032006420e100fa
:1007b000330032006150e1002f0032006120e1007f
:1007c0003100320085855500eb07b000090020009c
:1007d00008042000050037000804440089844c0008
:1007e0000a0031000603430087834b0000015300d9
:1007f00081815b00f8ff33000203be000800a00007
:100800000804440089844c00f6ff3900c639dd0035
:100810008301730001003200130020008904d1001d
:100820000884d3000998a300050032000800a7003f
:100830000300a0008904d1000884d3008b05e800e0
:100840008904d1000884d3000001eb000281d200aa
:100850003600070001f0a1000cf0a70001f0a00095
:100860007e0037006420e100800032000801be00f5
:100870000200be00f7ff37006120e1007b0032007c
:100880006000b800f3ff37000000200001f82700e7
:10089000f0ff37000001be004a0007000470a70007
:1008a00003f0a1006509b100160032000d0035000b
:1008b0006828e10006003500f0ff2f00f1ff270057
:1008c0000300e00013003b000100280000000500c9
:1008d00000004000818048008502e900fcff3a00ea
:1008e00008003700f88f420002003c008000eb0057
:1008f000000005008100d1000080d3008502e800df
:10090000fcff3a000300e00002003b006000100022
:10091000e0801800000006004f89de0082017800a8
:10092000890037006011b80097003700810020006f
:10093000618055000b003d000b00200061fe2f0080
:100940000100e1001d00340082817100610164003a
:100950008904d1000884d3000000e800faff3a00bf
:10096000710020006100640003007000020060005c
:100970000900320061044400e0844c000988a500ad
:10098000050032008b05e8006808e10002003a002b
:100990008904d1000884d300f20f20000258e1003e
:1009a00005003d00c75ddd00f907b20089807500d4
:1009b00008007800000006000bf827008b00780084
:1009c00000000500c70ade00f107b200f50fb20013
:1009d00008003200e1cf4200020032000170a000a6
:1009e00024000500810f700001003200040805009a
:1009f00044000500810f700002003a001400050059
:100a00008502e9000000400081c04800fcff3b0077
:100a10000170a000240005000004be00e9ff0700eb
:100a20000003be000405be000200be00e5ff070093
:100a3000844f7500000006000200be006450e10013
:100a4000050036006420e100020036000968a300ba
:100a500001003a000800be000160a0004f067800c7
:100a60004f05be004f04be0000000600f0ff2f003f
:100a7000f1ff2700f9ff3700889fbe008a9fbe0064
:100a80008c1f7800e4ff0700ebff330003866c0047
:100a90006450e100240032006420e10027003200ad
:100aa0006150e100220032006120e10021003200ab
:100ab0008b854200eb07b1000134b800003ab80062
:100ac0000804420089844a00013ab8000030b800a6
:100ad0008880400009014a00040033000000400003
:100ae00081804800020149008b05e900c909dd0049
:100af000830170000100320013002000c814de00e2
:100b00004814dd004709de001200b200c808de000c
:100b10000884700085ff070001f0a1000cf0a70019
:100b200001f0a000cdff37006120e100cfff3200cf
:100b30000801be000200be00f7ff37006150e1006f
:100b4000fcff3a00c9ff3700881f780003047800d3
:100b50000300e00007003d0060001000e080180086
:100b600060011900e081190002003b0001f02d0036
:100b7000030037000400070008f0a70001f0a00000
:100b80004f04780000000600889fbe008a9fbe00c8
:100b9000008270000402710004827100260032009d
:100ba0000004be000200be006011b8006b09200006
:100bb000950220000182cf000a0039000541b100f2
:100bc0000082cf00070039000541b1000982cf0043
:100bd000040039000541b1000882cf00010039004e
:100be0000541b10005425200120032000a003b00ec
:100bf00082817100610164008100d1000080d30016
:100c00008984d3000884d3008b05e8000442e800ff
:100c1000f7ff3a00070037000804440089844c00bd
:100c200000004800818048008b05e9000442e9008b
:100c3000f9ff3a003dff07004f05be004f04be001c
:040c400000000600aa
:020000040000fa
:100c44000400fa000000eb00000f7800007122009d
:100c5400100798001e0090006a00b9008000780018
:100c6400004080000000e800000178001100090045
:100c74008200d800100798000000eb00000f7800f5
:100c8400010037001e0fe8001e0090009e0078004f
:100c9400808f5000fbff35000080fa000000060042
:100ca4000400fa000000eb00000f7800007122003d
:100cb400100798001e0090006a00b90080007800b8
:100cc400104080000000e8000001780011000900d5
:100cd4008200d800100798000000eb00000f780095
:100ce400010037001e0fe8001e0090006a00b900e2
:100cf400000078009e0f5000faff3c000080fa00cc
:100d0400000006000000fa002143a8000119800039
:100d1400f0cf2f00008060000019880001198000c6
:100d2400f0f12f00008060000060a000001988002e
:100d34002043a8002343a80011198000f0cf2f00fe
:100d440000806000101988001119800030fc2f0009
:100d5400008060001019880025e3a900f0c3b300e7
:100d640024e3b70030a3a8000080eb0060198800da
:100d74002ca3a90085a0a90051058000f0f82f003c
:100d8400808060000006200001007000500588008b
:100d940095a0a80021e3a8000080fa000000060046
:100da4000000fa0013e1a90011e1a9001061a800f4
:100db4001021a90010c1a90081088000f0fc2f00b7
:100dc400008060000040a000800888000a21ef0035
:100dd4000621ef003000200070088800803a2800c7
:100de400600888008500a9009500a80011e1a8000a
:100df4000080fa00000006000000fa000421ef0061
:100e04008460a90021058000f0ff280000806000b4
:100e140000c0a000200588009460a8000421a90057
:100e240004c1a90021088000f0fc2f0000806000ac
:100e34000050a000200888000021ef00709f2500ca
:100e44001008880005e1a8000080fa0000000600f0
:100e54000000fa001e21ef008760a90081058000d0
:100e6400f0ff28000080600000c0a000800588001a
:100e74009760a8001e21a9001ec1a900f1088000e6
:100e8400f0fc2f00008060000050a000f0088800f3
:100e94001421ef00709f2500d00888001fe1a800ee
:100ea4000080fa00000006000000fa00cb62a900ee
:100eb400cb42a900cb22a900cb02a9000080fa00f2
:100ec400000006000000fa00cbe2a900cbc2a90092
:100ed400cba2a900cb82a9000080fa000000060082
:100ee4000000fa000100370000000000004080000c
:100ef4000000e000fcff3200cbe2a80050ff070036
:100f0400f0ff0700cbc2a8004dff0700edff07006c
:100f1400cba2a8004aff0700eaff0700cb82a80083
:100f240047ff0700e7ff0700f0ff37000000fa0063
:100f3400ca42a900cbe2a800c822ef00c8e2a80078
:100f44008400a9009400a8008200a800aaff07005a
:100f540093ff0700dbff0700e1ff07000080fa00b2
:040f64000000060083
:020000040000fa
:100f6800000800000600000000000000000000006b
:020000040000fa
:0200000401f009
:04000c008000000070
:020000040000fa
:0200000401f009
:040010006700000085
:020000040000fa
:0200000401f009
:040014005f00000089
:00000001FF
